{
  "_format": "hh3-artifact-1",
  "contractName": "CarbonStorage",
  "sourceName": "contracts/EnergyTrackingReport.sol",
  "abi": [
    {
      "anonymous": false,
      "inputs": [
        {
          "indexed": true,
          "internalType": "address",
          "name": "user",
          "type": "address"
        },
        {
          "indexed": false,
          "internalType": "uint256",
          "name": "carbonAmount",
          "type": "uint256"
        },
        {
          "indexed": false,
          "internalType": "string",
          "name": "dataHash",
          "type": "string"
        },
        {
          "indexed": false,
          "internalType": "uint256",
          "name": "timestamp",
          "type": "uint256"
        }
      ],
      "name": "CarbonReportLogged",
      "type": "event"
    },
    {
      "inputs": [
        {
          "internalType": "uint256",
          "name": "_carbonAmount",
          "type": "uint256"
        },
        {
          "internalType": "string",
          "name": "_dataHash",
          "type": "string"
        }
      ],
      "name": "pushReport",
      "outputs": [],
      "stateMutability": "nonpayable",
      "type": "function"
    }
  ],
  "bytecode": "0x6080604052348015600e575f5ffd5b506101d58061001c5f395ff3fe608060405234801561000f575f5ffd5b5060043610610029575f3560e01c8063919fc0c41461002d575b5f5ffd5b61004061003b36600461009f565b610042565b005b336001600160a01b03167fd4114a907745bb286bb51a93ddbe88cae8e9ffeecbf2cb580309b612f8420d1c83834260405161007f9392919061015c565b60405180910390a25050565b634e487b7160e01b5f52604160045260245ffd5b5f5f604083850312156100b0575f5ffd5b82359150602083013567ffffffffffffffff8111156100cd575f5ffd5b8301601f810185136100dd575f5ffd5b803567ffffffffffffffff8111156100f7576100f761008b565b604051601f8201601f19908116603f0116810167ffffffffffffffff811182821017156101265761012661008b565b60405281815282820160200187101561013d575f5ffd5b816020840160208301375f602083830101528093505050509250929050565b838152606060208201525f83518060608401528060208601608085015e5f608082850101526080601f19601f83011684010191505082604083015294935050505056fea264697066735822122012e0a5605b8016c8a4fc8250e86373c9bf5f56f70c46e252cd4911c10de42f5964736f6c634300081c0033",
  "linkReferences": {},
  "deployedLinkReferences": {},
  "immutableReferences": {},
  "inputSourceName": "project/contracts/EnergyTrackingReport.sol",
  "buildInfoId": "solc-0_8_28-2fcc0de22cb40c26d372b337abcc879d418aa1d8"
}